{
  "contractName": "TokenMediator",
  "abi": [
    {
      "inputs": [
        {
          "internalType": "contract IMSToken",
          "name": "_imsToken",
          "type": "address"
        }
      ],
      "payable": false,
      "stateMutability": "nonpayable",
      "type": "constructor"
    },
    {
      "constant": true,
      "inputs": [],
      "name": "imsToken",
      "outputs": [
        {
          "internalType": "contract IMSToken",
          "name": "",
          "type": "address"
        }
      ],
      "payable": false,
      "stateMutability": "view",
      "type": "function"
    },
    {
      "constant": true,
      "inputs": [],
      "name": "name",
      "outputs": [
        {
          "internalType": "string",
          "name": "",
          "type": "string"
        }
      ],
      "payable": false,
      "stateMutability": "view",
      "type": "function"
    },
    {
      "constant": true,
      "inputs": [],
      "name": "owner",
      "outputs": [
        {
          "internalType": "address",
          "name": "",
          "type": "address"
        }
      ],
      "payable": false,
      "stateMutability": "view",
      "type": "function"
    },
    {
      "constant": false,
      "inputs": [
        {
          "internalType": "uint256",
          "name": "_amount",
          "type": "uint256"
        }
      ],
      "name": "redeemTokens",
      "outputs": [],
      "payable": false,
      "stateMutability": "nonpayable",
      "type": "function"
    }
  ],
  "bytecode": "0x60806040526040518060400160405280600e81526020017f546f6b656e204d65646961746f720000000000000000000000000000000000008152506002908051906020019061004f929190610117565b5034801561005c57600080fd5b506040516106f43803806106f48339818101604052602081101561007f57600080fd5b8101908080519060200190929190505050806000806101000a81548173ffffffffffffffffffffffffffffffffffffffff021916908373ffffffffffffffffffffffffffffffffffffffff16021790555033600160006101000a81548173ffffffffffffffffffffffffffffffffffffffff021916908373ffffffffffffffffffffffffffffffffffffffff160217905550506101bc565b828054600181600116156101000203166002900490600052602060002090601f016020900481019282601f1061015857805160ff1916838001178555610186565b82800160010185558215610186579182015b8281111561018557825182559160200191906001019061016a565b5b5090506101939190610197565b5090565b6101b991905b808211156101b557600081600090555060010161019d565b5090565b90565b610529806101cb6000396000f3fe608060405234801561001057600080fd5b506004361061004c5760003560e01c806306fdde031461005157806363d02a7b146100d45780638da5cb5b1461011e578063a6e158f814610168575b600080fd5b610059610196565b6040518080602001828103825283818151815260200191508051906020019080838360005b8381101561009957808201518184015260208101905061007e565b50505050905090810190601f1680156100c65780820380516001836020036101000a031916815260200191505b509250505060405180910390f35b6100dc610234565b604051808273ffffffffffffffffffffffffffffffffffffffff1673ffffffffffffffffffffffffffffffffffffffff16815260200191505060405180910390f35b610126610259565b604051808273ffffffffffffffffffffffffffffffffffffffff1673ffffffffffffffffffffffffffffffffffffffff16815260200191505060405180910390f35b6101946004803603602081101561017e57600080fd5b810190808035906020019092919050505061027f565b005b60028054600181600116156101000203166002900480601f01602080910402602001604051908101604052809291908181526020018280546001816001161561010002031660029004801561022c5780601f106102015761010080835404028352916020019161022c565b820191906000526020600020905b81548152906001019060200180831161020f57829003601f168201915b505050505081565b6000809054906101000a900473ffffffffffffffffffffffffffffffffffffffff1681565b600160009054906101000a900473ffffffffffffffffffffffffffffffffffffffff1681565b600081116102f5576040517f08c379a00000000000000000000000000000000000000000000000000000000081526004018080602001828103825260158152602001807f616d6f756e74206973206c657373207468616e2030000000000000000000000081525060200191505060405180910390fd5b6000809054906101000a900473ffffffffffffffffffffffffffffffffffffffff1673ffffffffffffffffffffffffffffffffffffffff1663095ea7b333836040518363ffffffff1660e01b8152600401808373ffffffffffffffffffffffffffffffffffffffff1673ffffffffffffffffffffffffffffffffffffffff16815260200182815260200192505050602060405180830381600087803b15801561039d57600080fd5b505af11580156103b1573d6000803e3d6000fd5b505050506040513d60208110156103c757600080fd5b8101908080519060200190929190505050506000809054906101000a900473ffffffffffffffffffffffffffffffffffffffff1673ffffffffffffffffffffffffffffffffffffffff166323b872dd3033846040518463ffffffff1660e01b8152600401808473ffffffffffffffffffffffffffffffffffffffff1673ffffffffffffffffffffffffffffffffffffffff1681526020018373ffffffffffffffffffffffffffffffffffffffff1673ffffffffffffffffffffffffffffffffffffffff1681526020018281526020019350505050602060405180830381600087803b1580156104b557600080fd5b505af11580156104c9573d6000803e3d6000fd5b505050506040513d60208110156104df57600080fd5b8101908080519060200190929190505050505056fea265627a7a72315820c35c907944c82090d1be2f440e480d463a6a71a52bf0d3da0afe58ba88f9f94964736f6c63430005100032",
  "source": "pragma solidity ^0.5.0;\r\n\r\nimport './IMSToken.sol';\r\n\r\ncontract TokenMediator{\r\n    IMSToken public imsToken;\r\n    address public owner;\r\n    string public name=\"Token Mediator\";\r\n\r\n    constructor(IMSToken _imsToken) public{\r\n        imsToken = _imsToken;\r\n        owner = msg.sender;\r\n    }\r\n    \r\n    function redeemTokens(uint _amount) public {\r\n        require(_amount > 0 , \"amount is less than 0\");\r\n        imsToken.approve(msg.sender, _amount);\r\n        imsToken.transferFrom(address(this), msg.sender, _amount);\r\n    }\r\n}",
  "sourcePath": "C:/Users/voidash/Documents/github/crypto/IMSCoin/src/contracts/TokenMediator.sol",
  "compiler": {
    "name": "solc",
    "version": "0.5.16+commit.9c3226ce.Emscripten.clang"
  },
  "schemaVersion": "3.2.3",
  "updatedAt": "2021-08-09T09:59:01.280Z",
  "networkType": "ethereum",
  "devdoc": {
    "methods": {}
  },
  "userdoc": {
    "methods": {}
  }
}